:020000040800F2
:10000000681C0020F1010008B34100081F3C0008F3
:10001000B1410008DD0700085B6B0008000000002C
:10002000000000000000000000000000A1470008E0
:100030000F090008000000004B450008AD4700080C
:100040000B0200080B0200080B0200080B0200085C
:100050000B0200080B0200080B0200080B0200084C
:100060000B0200080B0200080B02000855080008EC
:10007000610800080B0200080B0200080B020008D0
:100080000B020008000000000B0200080B02000831
:10009000ED6A00080B0200080B0200080B020008C2
:1000A0000B0200082D4800080B0200080B02000894
:1000B000394800080B0200080B0200080B02000878
:1000C0000B0200080B0200080B0200080B020008DC
:1000D0000B0200080B0200080B020008FD53000889
:1000E0000B0200080B0200080B0200080B020008BC
:1000F0000B0200080B0200080B02000800000000C1
:10010000000000000B020008000000000B020008C5
:100110000B020008000000000B0200080B020008A0
:100120000B0200080B0200080B0200080B0200087B
:100130000B02000800000000000000000B02000895
:100140000B0200080B020008000000000000000085
:10015000000000000000000000000000000000009F
:100160000000000000000000000000000B0200087A
:100170000B0200080000000000000000000000006A
:10018000000000000B02000800000000000000005A
:10019000000000000000000000000000000000005F
:1001A00000000000000000000B0200080B02000825
:1001B0000B0200080B0200080B0200080000000000
:1001C000000000000B02000800000000000000001A
:1001D0000B0200080B020008DFF810D000F052FA02
:1001E00000480047F77C0008AFF30080681C00203F
:1001F0000648804706480047FEE7FEE7FEE7FEE7C1
:10020000FEE7FEE7FEE7FEE7FEE7FEE71D48000823
:10021000D90100082DE9F05F0546002092469B4673
:1002200088460646814640241BE02846414647460C
:10023000224600F05EF853465A46C01A914110D348
:1002400011461846224600F045F82D1A67EB0108C2
:100250004F4622460120002100F03CF817EB000930
:100260004E41201EA4F10104DFDC484631462A46F7
:100270004346BDE8F09FD2B201E000F8012B491ED1
:10028000FBD270470022F6E710B513460A46044633
:100290001946FFF7F0FF204610BD421C10F8011B65
:1002A0000029FBD1801A704730B50B46014600206B
:1002B0002022012409E021FA02F59D4205D303FA28
:1002C00002F5491B04FA02F52844151EA2F10102A9
:1002D000F1DC30BD202A04DB203A00FA02F10020D4
:1002E00070479140C2F1200320FA03F31943904074
:1002F0007047202A04DB203A21FA02F000217047DF
:1003000021FA02F3D040C2F120029140084319467D
:1003100070472DE9FE4F804681EA0300C00F0C466E
:10032000009021F0004123F00045B8EB0200A94104
:1003300005D24046214690461C460B46024623F015
:100340000040104347D0270DC7F30A00C3F30A51FA
:100350000290401A019040286BDAC3F3130040F476
:10036000801B0098924620B10023D2EB030A63EB76
:100370000B0B01985946C0F140025046FFF7AAFF07
:1003800006460D4650465946019A00F08DF910EB8D
:1003900008006141002487EA115284EAE7731A4396
:1003A00040D0009A62B3019A012A4FEA075215DC45
:1003B000001B61EB02014FF0004202EA0752CDE957
:1003C0000042001C41F5801132462B4600F08DF9A9
:1003D00003B0BDE8F08F40462146F9E7001B61EB12
:1003E0000201001C41F5801300185B412018A2F5A2
:1003F000001747EB030140EAD570B6196D4111E0D3
:100400006D084FEA360645EAC0754FEA0752001BF1
:1004100061EB0201001C41F5801149084FEA3000F0
:100420000019514132462B4603B0BDE8F04F00F0B1
:100430004DB90098012240000023D0EB020263EB8B
:10044000E073009821464FEAE074B8EB000061EBDE
:100450000401E9E783F000435BE781F0004158E7DE
:100460002DE9FE4F81EA030404F0004421F000412D
:1004700000944FF0000B23F0004350EA01045ED0DB
:1004800052EA03045BD0C3F30A54C1F30A552C4467
:10049000A4F2F3340194A0FB0254C1F3130141F41C
:1004A0008011C3F3130343F4801301FB024400FBE8
:1004B000034E840A970A44EA815447EA8357A4FB0F
:1004C000076802958D0A05FB07854FEA932C04FB0C
:1004D0000C542705029D4FEA065847EA1637B5EB3C
:1004E00008056EEB070C870E920E47EA811742EA69
:1004F0008312A7FB0201B6EB0B0164EB00042B0D8A
:1005000043EA0C335E1844EB1C50DA465146E7FBD5
:100510000201C5F313044FEA0B3343EA14534FEAC5
:100520000432019C43EA0603A4F10C040294009CEB
:10053000CDE900B400F0D9F803B0BDE8F08F002099
:100540000146F9E72DE9F04D81EA030404F0004B80
:1005500021F0004514464FF0000A23F0004150EA14
:10056000050220D054EA01021DD0C5F30A57024605
:10057000C5F31303C1F31300C1F30A5640F4801509
:1005800043F48013A7EB0608101BD64608F2FD388B
:1005900073EB050002D308F1010801E092185B41FA
:1005A000B8F1000F03DA00200146BDE8F08D00200D
:1005B0004FF48011064684460EE0171B73EB0507C7
:1005C00005D3121B63EB050306434CEA010C4908F3
:1005D0004FEA300092185B4150EA0107EDD152EA30
:1005E000030012D082EA040083EA0501084305D023
:1005F000101BAB4106D20122002306E000224FF07F
:10060000004302E06FF0010253101AEB06004CEBBE
:10061000085110EB0A0041EB0B01BDE8F04D00F072
:1006200055B8C1F30A52C1F3130140F2FF3341F44C
:1006300080119A4202DA00200146704740F23343AB
:100640009A42A2F2334202DC5242FFF752BEFFF757
:1006500041BE000030B5041E71F1000404DB4FF010
:100660000044404264EB0101141E73F1000405DBF9
:100670001C464FF00043524263EB0403994208BF0B
:10068000904230BD064C074D06E0E06840F00103A3
:1006900094E8070098471034AC42F6D3FFF7A0FD6A
:1006A0005880000878800008202A06DBCB17203A03
:1006B00041FA02F043EAE07306E041FA02F3D04067
:1006C000C2F12002914008431946704710B5141E2C
:1006D00073F1000408DA401C41F1000192185B41FB
:1006E0001A4301D120F0010010BD2DE9F04D9246D2
:1006F0009B4611B1B1FA81F202E0B0FA80F22032E9
:100700009046FFF7E7FD04460F4640EA0A0041EA3B
:100710000B0153465A46084313D0114653EA0100D1
:1007200019D0C8F140025046FFF7E3FD05460E46DA
:10073000504659464246FFF7CDFD084305D00120FB
:1007400004E020463946BDE8F08D0020054346EA26
:10075000E0762C4337430A986305E40AA0EB0800CF
:100760000022FD0A44EA47540A3002D5002001461F
:10077000E9E7010510196941DDE9084500196941FA
:10078000BDE8F04DA2E770B58C1810F8015B15F0CC
:10079000070301D110F8013B2A1106D110F8012BF3
:1007A00003E010F8016B01F8016B5B1EF9D12B0718
:1007B00005D40023521E0DD401F8013BFAE710F8CE
:1007C000013BCB1A921C03E013F8015B01F8015BBB
:1007D000521EF9D5A142D8D3002070BDFEE70020FB
:1007E000704700207047000010B5002204490548FA
:1007F00004F08DFF0449034804F080FF002010BD81
:1008000068140020980B00206810002010B50146E5
:10081000034804F073FF024804F038FF002010BDC5
:10082000980B002000207047094A10B5D2F8BC226E
:10083000D2F814220AB1012010BD0A46014604482C
:1008400004F065FFBDE81040014804F0CABF000095
:10085000980B0020014800F0CEB8000044050020AD
:10086000014800F0C8B80000A40500200D49026846
:100870008A4201D20C4901E00B492031D2B2142343
:10088000083AB2FBF3F2436C02F01F0223F00303B9
:100890001944816404498031C1640121914001659A
:1008A0007047000008040240000802400179074A2E
:1008B00002EB81024265054A4432491E826501F01D
:1008C0001F0201219140C16570470000FC080240F1
:1008D00030B5D0E913456560446D14B1D0E91645D3
:1008E000656090F8444004F01F050124AC40056C9D
:1008F0006C60046863608368102B036803D09960A0
:100900000068C26030BD9A600068C16030BD704749
:1009100072B6FEE710B590F8253000210122022BB7
:1009200003D00421C163012122E003681C6824F084
:100930000E041C60836C1C6824F480741C600368C3
:100940001C6824F001041C6090F84430046C03F02F
:100950001F0302FA03F36360D0E913345C60436D54
:1009600033B11C6824F480741C60D0E916345C60D8
:1009700080F82520002280F82420084610BD70B59C
:1009800090F82520002401212346022A07D00422C2
:10099000C26380F8251080F82430012429E0026821
:1009A000156825F00E0515600268156825F001052B
:1009B0001560826C156825F48075156090F84420E8
:1009C000056C02F01F0201FA02F26A60D0E91325F9
:1009D0005560426D32B1156825F480751560D0E917
:1009E0001625556080F8251080F82430816B01B100
:1009F0008847204670BDF0B4016C0C6801680D6832
:100A000090F8442002F01F06042202FA06F3234263
:100A100011D06B070FD50B689B0603D40B6823F02E
:100A200004030B6090F8441001F01F018A40016C30
:100A30004A60016B1DE0022303FA06F727424FF0DC
:100A4000000C4FF0010218D0AF0716D50C68A406B1
:100A500005D40C6824F00A040C6080F8252090F876
:100A6000441001F01F018B40016C4B6080F824C0E2
:100A7000C16A00291AD0F0BC08470823B3402342BA
:100A800014D02B0712D50B6823F00E030B6090F8DF
:100A90004410036C01F01F0102FA01F15960C263B6
:100AA00080F8252080F824C0416BE2E7F0BC704755
:100AB00070B504000CD02B4A21681420914209D251
:100AC000294A0A44B2FBF0F08000606427480AE03B
:100AD000012070BD234A52420A44B2FBF0F080006C
:100AE0006064204808382064022084F825000A68E1
:100AF00047F6F0708243D4E902031843D4E9043581
:100B00002B431843A3691843E3691843236A184326
:100B1000104308602046FFF7A9FEA0680025B0F545
:100B2000804F00D16560A16C20790860D4E9130181
:100B300041606068401E032808D82046FFF7B6FED3
:100B4000606D0560D4E91601416002E06565A56548
:100B5000E565E563012084F8250084F82450002031
:100B600070BD000008040240F8FFFDBF0000024015
:100B700070B5044690F82400002501280CD001200F
:100B800084F8240094F825600020012E06D084F813
:100B900024000225284670BD022070BD022684F87C
:100BA0002560E0632068066826F00106066020469E
:100BB000FFF78EFE206B00282068016802D041F00C
:100BC0000E0106E021F0040101602068016841F097
:100BD0000A010160A06C0168C90303D5016841F4F2
:100BE00080710160606D18B1016841F4807101602D
:100BF0002068016841F001010160CBE770B504464F
:100C000000F038F90546601C02D0044840680444EE
:100C100000F030F9401BA042FAD370BD0000002064
:100C20002DE9F04FDFF82092002301260324A9F1DB
:100C3000040B85B00F2709F1040AABF1040EFAE0AA
:100C400006FA03F52A407CD091F804C00CF0030C9E
:100C5000BCF1010F02D0BCF1020F26D1D0F808C0C0
:100C6000CDF800C04FEA430C04FA0CF8CDF810C0E0
:100C7000DDF800C02CEA080CCDF800C0D1F80C80DB
:100C8000DDF810C008FA0CF8DDF800C048EA0C08DE
:100C9000C0F80880D0F804C02CEA050C0D79C5F323
:100CA00000159D4045EA0C0545600D79ED43AD0703
:100CB0000ED0C5684FEA430804FA08FC25EA0C0583
:100CC000D1F808C00CFA08FC4CEA050CC0F80CC0BE
:100CD0000D7905F00305022D16D1DD0800EB850C1A
:100CE000CDF808C0DCF820805D074FEAD56C07FA24
:100CF0000CF528EA05080D6905FA0CF5DDF808C0C1
:100D000045EA0805CCF8205005684FEA430CCDF8B9
:100D100008C004FA0CFC25EA0C0591F804C00CF09C
:100D20000308DDF808C008FA0CF848EA0508C0F81E
:100D300000804D6815F4403F7CD0444DD5F860C02C
:100D400000E077E04CF0010CC5F860C02D6E23F098
:100D5000030C05F0010500953D4D65440295AD6815
:100D60004FEA837C4FEA1C7807FA08FC25EA0C0559
:100D7000B0F1904F06D0DFF8DCC0604505D14FF0F0
:100D8000010C20E04FF0000C1DE0DFF8CCC0604506
:100D900002D14FF0020C16E0DFF8C0C0604502D16E
:100DA0004FF0030C0FE0DFF8B8C0604502D14FF000
:100DB000040C08E0DFF8ACC0604502D14FF0050C30
:100DC00001E04FF0060C0CFA08FC4CEA050C029D01
:100DD000C5F808C0D9F80050CC46D1F80480954336
:100DE0005FEAC82800D51543CCF80050DAF8005067
:100DF000D446D1F8048095435FEA882800D515438E
:100E0000CCF80050DBF80050DC46D1F80480954364
:100E10005FEA883800D51543CCF80050DEF8005062
:100E2000F446D1F8048095435FEAC83800D51543ED
:100E3000CCF800505B1C0A6832FA03F57FF400AF6F
:100E400005B0BDE8F08F000008040140001002402A
:100E5000000001400004004800080048000C004861
:100E600000100048001400480AB181617047816297
:100E700070470000014880687047000000000020B3
:100E800090F84120202A24D190F84020012A20D037
:100E9000012280F84020242280F841200268136853
:100EA00023F0010313600268136823F48053136076
:100EB000026813680B43136001680A6842F001027C
:100EC0000A60202180F84110002180F84010084677
:100ED00070470220704790F84120202A22D190F8D4
:100EE0004020012A1ED0012280F84020242280F8D0
:100EF00041200268136823F001031360026813683D
:100F000023F4706343EA0121116001680A6842F02A
:100F100001020A60202180F84110002180F8401071
:100F2000084670470220704770B5040004D094F85A
:100F30004100002510B106E0012070BD84F840504A
:100F4000204600F04FF8242084F841002068016812
:100F500021F0010101606068216820F07060086183
:100F60002068816821F400418160E0680128A06860
:100F700030D040F4044021688860E068022820688E
:100F800041682AD021F40061416020684168144A18
:100F9000114341602068C16821F40041C160D4E977
:100FA00004010843A16940EA01202168C860D4E92E
:100FB00007010843216808602068016841F00101C9
:100FC00001606564202084F84100256384F8425064
:100FD000002070BD40F40040CDE741F40061D3E74C
:100FE00000800002F0B597B00446142111A8FFF765
:100FF00049F944216846FFF745F91F4920688842AE
:1010000038D18020002500900795684600F016FE34
:1010100008B1FFF77DFC194CE06C40F00400E0647F
:10102000E06C00F004001690E06C40F00100E06419
:10103000E06C122600F00100169004271020CDE984
:101040001265CDE91457119011A90D48FFF7E8FD7D
:10105000A015CDE91265CDE91457119011A9B0067C
:10106000FFF7DEFDA06D40F48000A065A06D00F4E8
:101070008000169017B0F0BD0058004000100240EC
:101080000008004802488168426811448160704746
:101090000000002010B50024032000F073F80F209A
:1010A00000F008F808B1012401E000F025F820461E
:1010B00010BD000070B50E4E05460024706898B152
:1010C0004FF47A71B1FBF0F00A490968B1FBF0F016
:1010D00001F0C8FD40B9102D06D200222946501E4D
:1010E00000F030F8356000E00124204670BD0000BB
:1010F000000000200C0000200A4882B0016E41F080
:1011000001010166016E01F001010091816D41F064
:1011100080518165806D00F08050009002B000F039
:1011200085BD000000100240002809DB00F01F020E
:10113000012191404009800000F1E020C0F8001139
:1011400070470000F0B40E4B1B680C46C3F302233B
:10115000C3F10705042D00D90425191D072901D263
:10116000002300E0DB1E012606FA05F1491E21409E
:1011700099409E40761E16403143F0BC05F008BDF4
:101180000CED00E0064900F0070208684FF6FF0387
:10119000184040EA0220034A1043086070470000EC
:1011A0000CED00E00000FA0501220168C0F8D02231
:1011B000002280F8C82231F8540F40F00100088066
:1011C000088840F0020008801046704770B50F4D47
:1011D000044669B101290AD1D4F8D80204F0CDFD42
:1011E000607A002803D0286840F00600286070BDAF
:1011F000607A28B103F0DCFA286820F00600286045
:10120000D4F8D802BDE8704004F04FBD10ED00E006
:1012100010B50C0607D501F0070101EB810100EBC9
:10122000C100103005E001EB810100EBC10000F5C9
:10123000A87099B232B1012202730181190C418167
:10124000002010BD00220273C180F9E701EB81028A
:1012500000EBC202D0F8D802526A04F004BC01EBE1
:10126000810200EBC202D0F8D802D2F8642104F067
:101270004EBC70B504460B0601F0070000EB800180
:1012800004EBC1014FF001024FF0000502D54A7492
:10129000103103E081F8515101F5A871087094F8FC
:1012A0009002012808D084F89022206805F0B0F858
:1012B00084F89052002070BD022070BD70B50446C5
:1012C00001F00F002279904201D9012070BD0B0678
:1012D00001F0070000EB800104EBC1014FF00102B7
:1012E0004FF0000502D54A74103103E081F85151E6
:1012F00001F5A8718D70087094F89002012808D04B
:1013000084F89022206805F022F984F89052002099
:1013100070BD022070BD2DE9F04704685FEA4248C5
:101320000B788D69B4F850804FF0000C4BF68F7736
:1013300048F2800648F68F7948F2C00A444428D51E
:1013400040F2024808EBC30834F80840C4F309042B
:10135000A54203D32D1B8D6102D00BE0C1F818C04C
:10136000D0F800C03CF823503D4085F4005535438B
:101370002CF82350520609D50B78056835F8232040
:1013800002EA090242EA0A0225F8232074B30A8914
:1013900027E040F2064808EBC30834F80840C4F3DD
:1013A0000904A54203D32D1B8D6102D00BE0C1F8C7
:1013B00018C0D0F800C03CF823503D4085F40055DB
:1013C00035432CF82350520609D40D78036833F8BE
:1013D000252002EA090242EA0A0223F825202CB15C
:1013E0004A8949690068234605F089FB2046BDE823
:1013F000F0872DE9F047054600680C465FEA426831
:101400001646D1F818C02278B0F8508048F68F7789
:101410004CF280094FF400434FF6FF7A4FF0000181
:10142000404472D540F2024808EBC20830F8080088
:10143000C0F30900844514D9BCEB000CC4F818C0F3
:1014400010D0760408D5D5F800C03CF822603E40A4
:1014500046EA09062CF8226094F82420012A47D095
:1014600056E1A161607810B1012813D01AE0286814
:10147000B0F85030184400EBC200B0F80224C2F3B8
:101480000902A0F80224B0F8022442F40042A0F8B5
:10149000022407E02868B0F85030184400EBC2007E
:1014A000A0F802146278286812B1012A11D018E05D
:1014B000B0F850100844217800EBC100B0F80614D1
:1014C000C1F30901A0F80614B0F8061441F4004174
:1014D00005E0B0F850201044227800EBC200A0F8DC
:1014E000061421782846FFF7B1FE70046ED40FE190
:1014F000626902446261E2690244E2612669226A29
:10150000B24203D33046111A04E040E084F82410BC
:101510000AB110462162617811B101292BD033E064
:101520002968B1F850201144227801EBC201B1F8CA
:101530000224C2F30902A1F8022401F202413E286A
:1015400009D94209C60600D1521E0E8843EA8222FA
:1015500016430E8018E048B14208C30700D0521C61
:101560000B880AEA822213430B800DE00A8842F4BA
:1015700000420A8008E02968B1F85020114422781E
:1015800001EBC201A1F8020483B22289BCE040F25F
:10159000064808EBC20830F80800C0F3090084458B
:1015A00015D3BCEB000CC4F818C011D0760408D4D5
:1015B000D5F800C03CF822603E4046EA09062CF807
:1015C000226094F82420012A51D0A1E045E0A161D5
:1015D000607810B1012813D01AE02868B0F85030B4
:1015E000184400EBC200B0F80224C2F30902A0F8CC
:1015F0000224B0F8022442F40042A0F8022407E0DA
:101600002868B0F85030184400EBC200A0F802146B
:101610006278286812B1012A11D018E0B0F8501091
:101620000844217800EBC100B0F80614C1F30901A9
:10163000A0F80614B0F8061441F4004105E0B0F833
:1016400050201044227800EBC200A0F80614217844
:101650002846FFF7FBFD70045AD421782A6832F837
:101660002100384040EA090022F8210050E0626978
:1016700002446261E2690244E2612669226AB2427E
:1016800003D33046111A216204E00AB110462162E8
:1016900084F824106278296812B1012A2AD031E036
:1016A000B1F850201144227801EBC201B1F80624B0
:1016B000C2F30902A1F8062401F206413E2809D925
:1016C0004209C60600D1521E0E8843EA8222164302
:1016D0000E8017E048B14208C30700D0521C0B88A7
:1016E0000AEA822213430B800CE00A8842F400428B
:1016F0000A8007E0B1F850201144227801EBC201C2
:10170000A1F80604628983B26169286805F012FABB
:1017100021782A6832F8210048F6BF73184080F01B
:10172000300048F28003184322F821000020BDE871
:10173000F08701F0070101EB810100EBC100D0F857
:101740006C0170472DE9F04104460F0601F00700D7
:1017500000EB800104EBC1014FF001064FF00005E2
:1017600002D54E74103103E081F8515101F5A87192
:10177000022B08700A61CB7000D10D7194F89002B1
:10178000012809D084F89062206804F0F3FC284610
:1017900084F89052BDE8F0810220FBE710B501F01B
:1017A000070404EB840100EBC101C1E959230022C5
:1017B000C1F86C2181F8512181F85041006801F590
:1017C000A87104F019FF002010BD70B5044601F0A7
:1017D00007002279904201D9012070BD0B064FF01D
:1017E00000054FF0010206D500EB800104EBC101BA
:1017F0004A74103107E001EB810104EBC10181F86B
:10180000515101F5A8718A70087094F8900201286E
:1018100008D084F89022206804F0D5FE84F8905215
:10182000002070BD022070BD10B501F0070404EB6C
:10183000840100EBC101C1E90923012281F83420B0
:101840000B630023CB624A7401F8104F006804F068
:10185000D3FE002010BD10B50446006805F04CF919
:10186000010404D52046BDE8104002F0A3BC4105A8
:101870000ED5206830F8441F21F480610180204695
:1018800000F008F92046BDE81040002100F02EB914
:10189000410405D5206830F8441F21F480417DE0E3
:1018A000810405D5206830F8441F21F4005175E00B
:1018B000C1041FD5206830F8401F21F004010180C9
:1018C000206830F8401F21F00801018094F8C80218
:1018D000012806D1002084F8C80201462046FFF7FF
:1018E00075FC204600F0EAF8206830F8441F21F427
:1018F000805153E0010512D5206830F8401F41F0B7
:1019000008010180206830F8441F21F40061018043
:10191000206830F8401F41F0040101800AE0010610
:1019200029D5206830F8441F21F08001018094F807
:10193000C80218B1204600F009F910BD206830F83F
:10194000401F41F004010180206830F8401F41F041
:1019500008010180012084F8C8022068B0F8540012
:101960003C2101EA9000C4F8CC022046BDE81040BA
:101970000121FFF72BBC810509D5206830F8441FF1
:1019800021F400710180204600F0ACF810BDC005C4
:10199000FCD5206830F8441F21F48071018010BD0F
:1019A00070B5040004D094F89102002510B106E04F
:1019B000012070BD84F89052204600F03FF80320CB
:1019C00084F89102206804F0BAFD002001260BE0A3
:1019D00000EB800104EBC1014E740874CD740D62FC
:1019E0004D62401CC0B28D6221798142F0D8002046
:1019F00012E000BF00EB800104EBC10181F85151FE
:101A000081F8500181F85351C1F86051C1F8645117
:101A1000401CC0B2C1F8685121798142EAD894E8EB
:101A2000070004F083FD257384F89162A07A0128F1
:101A300002D12046FFF7B8FB002070BD10B592B070
:101A4000044644216846FEF71DFC10492068884280
:101A50001AD14014009000200D90684600F0EEF876
:101A600008B1FEF755FF0A48816D41F40001816518
:101A7000806D002200F40000119011461420FFF741
:101A800061FB1420FFF750FB12B010BD005C00405A
:101A90000010024070B5044640790125022801D0AB
:101AA000FEF736FF2946D4F8D80204F018F9D4F826
:101AB000D802BDE8704004F0CBB8000010B5044671
:101AC000407A30B10648016821F00601016002F059
:101AD0006FFED4F8D802BDE8104004F0E6B800006C
:101AE00010ED00E0D0F8D80204F0E9B810B50446D3
:101AF00090F8900201280AD0012084F89002217306
:101B0000206805F010F8002084F8900210BD022033
:101B100010BDD0F8D82200F52671104604F0EBB8BD
:101B200010B5044690F8900201280CD0012084F8EA
:101B30009002206804F0D1FF206804F0F0FC00203F
:101B400084F8900210BD022010BD000010B50446BC
:101B5000D0F8D80204F011F9607A002804D00348C4
:101B6000016841F00601016010BD000010ED00E0C9
:101B70002B492C4B0A6832214A432B4940B1B0F51E
:101B8000007F086829D020F4C06040F480602CE019
:101B90000868C0F34120022804D051F8800F20F4D7
:101BA000807022E0D1F8800020F48070C1F88000BD
:101BB000086820F4C06040F400700860B2FBF3F0E5
:101BC000401C00E0401E4A69520501D50028F9D1A9
:101BD000486940050AD503207047C0F34120022818
:101BE00006D051F8800F40F48070086000207047E4
:101BF000D1F8800040F48070C1F88000086820F4BB
:101C0000C06040F400700860B2FBF3F0401C00E0DC
:101C1000401E4A695205DBD50028F9D1D8E70000FB
:101C20000C00002040420F00007000400248816814
:101C300041F4804181607047007000402DE9F84315
:101C40000446006800269D4D00035ED5A86D002760
:101C5000C00008D4A86D40F08050A865A86D012789
:101C600000F080500090DFF85892D9F8001041F44D
:101C70008071C9F80010FFF7FDF8804606E000BF4C
:101C8000FFF7F8F8A0EB080002282BD8D9F80000DD
:101C9000C005F5D5D5F8900010F4407014D0216C33
:101CA000814211D0D5F89000D5F8901020F4407002
:101CB00041F48031C5F89010D5F8901021F48031AE
:101CC000C5F89010C5F89000C00711D0FFF7D2F802
:101CD000804641F2883907E0FFF7CCF8A0EB080115
:101CE000494501D903260BE0D5F890008007F3D5CC
:101CF000D5F89000216C20F440700843C5F890009E
:101D00001FB1A86D20F08050A8652078C00707D0CB
:101D1000D5F88800616820F003000843C5F8880002
:101D20002078800707D5D5F88800A16820F00C003E
:101D30000843C5F888002078400707D5D5F8880003
:101D4000E16820F030000843C5F8880020780007DB
:101D500007D5D5F88800216920F0C0000843C5F8F0
:101D600088002078800607D5D5F88800616920F4BE
:101D700040600843C5F888002078400607D5D5F8AC
:101D80008800A16920F440500843C5F888002078F5
:101D9000000607D5D5F88800E16920F440400843E3
:101DA000C5F888002088C00507D5D5F88800216AC5
:101DB00020F440300843C5F888002088800507D506
:101DC000D5F88800616A20F440200843C5F88800EF
:101DD000208840050FD5D5F88800A16A20F440106E
:101DE0000843C5F88800A06AB0F5801F03D1E868F1
:101DF00040F48010E860208800050FD5D5F88800F1
:101E0000E16A20F440000843C5F88800E06AB0F5B4
:101E1000800F03D1E86840F48010E8602088C00497
:101E20000FD5D5F88800216B20F040700843C5F825
:101E30008800206BB0F1807F03D1E86840F4801007
:101E4000E86020884FF0006180040ED5D5F8880046
:101E5000626B20F040601043C5F88800606B8842D8
:101E600003D1E86840F48010E860208840040ED573
:101E7000D5F88800A26B20F040601043C5F88800B8
:101E8000A06B884203D1E86840F48010E8602088A5
:101E900000040FD5D5F88800E16B20F040500843CE
:101EA000C5F88800E06BB0F1805F03D1E86840F4CA
:101EB0008030E8603046BDE8F88300000010024042
:101EC000007000402DE9F0470E4605004FF0000776
:101ED00025D0DFF8AC81D8F8000000F00F00B04248
:101EE0000CD2D8F8001021F00F013143C8F80010CF
:101EF000D8F8000000F00F00B04210D12968614C02
:101F0000C80741F2883A5AD06868DFF87C91032804
:101F100008D0022820682DD0400500282CDB0120A5
:101F2000BDE8F08720688001F9D5E06800F0030281
:101F3000E068C0F30310401C032A19D0534A00BFC5
:101F4000B2FBF0F0E268C2F306225043E268C2F34B
:101F50004162521C5200B0FBF2F0484517D9A0680C
:101F600010F0F00F0CD0880711D5A86840B10EE032
:101F7000474AE5E78003D0E700F0B6F8484506D9C0
:101F8000A06820F0F00040F08000A0608027A068EA
:101F9000696820F003000843A060FEF76BFF8146EC
:101FA00006E000BFFEF766FFA0EB090151453AD8F5
:101FB000A068696800F00C00B0EB810FF2D12868CE
:101FC000810714D5400703D5A06840F4E060A06005
:101FD0002878000705D5A06820F4605040F4E06040
:101FE000A060A068A96820F0F000084304E0802FFA
:101FF00003D1A06820F0F000A060D8F8001040469F
:1020000001F00F01B14216D9016821F00F013143EF
:102010000160FEF72FFF074607E000BFFEF72AFF2B
:10202000C11B514501D903207AE7D8F8000000F020
:102030000F00B042F2D12878400705D5A068E968C2
:1020400020F4E0600843A0602878000706D5A06867
:10205000296920F4605040EAC100A06000F044F813
:10206000A1680C4AC1F30311515C01F01F01C84083
:102070000949086009480068BDE8F047FFF71AB849
:10208000002002400010024000B4C4040024F40008
:10209000001BB700408000080C000020000000205A
:1020A0000548064900688968054AC1F30221515C68
:1020B00001F01F01C84070470C00002000100240D2
:1020C000508000080548064900688968054AC1F340
:1020D000C221515C01F01F01C84070470C00002074
:1020E0000010024050800008184910B58868C0F3FD
:1020F00081021748012A0BD08A68164BC2F381026D
:10210000022A06D08A68C2F38102032A03D0002083
:1021100010BD184610BDCA6802F00304CA68C2F3B5
:102120000312521C032C02D0B0FBF2F001E0B3FB0F
:10213000F2F0CA68C968C2F306225043C1F3416194
:10214000491C4900B0FBF1F010BD00000010024036
:102150000024F400001BB7002DE9F84304007AD0F6
:102160002078F84DC00747D0A868E96800F00C0057
:1021700001F003010C2802D0082817D001E0032940
:1021800014D06068B0F5803F17D0B0F5A02F286854
:1021900017D020F480302860286820F48020286040
:1021A0006068E0B1FEF766FE064614E0286880032A
:1021B00022D560680028D2D01EE0286840F4803024
:1021C000EDE740F480202860F7E700BFFEF752FEFD
:1021D000801B642870D828688003F7D50CE0FEF7D0
:1021E00049FE064605E000BFFEF744FE801B64285A
:1021F000F0D828688003F7D4207880074CD5A868E9
:10220000E96800F00C0001F003010C2802D004285A
:102210000DD001E002290AD0E068002828682BD000
:1022200040F480702860FEF725FE064619E0286815
:10223000400502D5E068002891D06868217C20F034
:10224000FE4040EA01606860BF480068FEF732FF68
:10225000002800D120E072E1FEF70CFE801B02286E
:10226000B8D828684005F7D56868217C20F0FE4082
:1022700040EA016068600FE020F480702860FEF79B
:10228000F9FD064605E000BFFEF7F4FD801B0228BD
:10229000A0D828684005F7D42078000729D56069C0
:1022A0000028D5F8940013D040F00100C5F8940040
:1022B000FEF7E0FD064606E090E000BFFEF7DAFD1F
:1022C000801B022886D8D5F894008007F6D510E048
:1022D00020F00100C5F89400FEF7CCFD064604E0AE
:1022E000FEF7C8FD801B022878D8D5F89400800737
:1022F000F6D42078400761D5A86D0026C00008D428
:10230000A86D40F08050A865A86D012600F08050AF
:1023100000908E480168C90511D40168804641F4D7
:1023200080710160FEF7A6FD074604E0FEF7A2FDFE
:10233000C01B022852D8D8F80000C005F6D5A06806
:10234000012815D00528D5F8900016D020F00100FE
:10235000C5F89000D5F8900020F00400C5F8900072
:10236000A06841F28838B8B1FEF784FD07460EE058
:10237000D5F8900040F00100F0E740F00400C5F807
:102380009000F5E7FEF776FDC11B414526D8D5F84C
:1023900090008007F6D50CE0FEF76CFD074604E0E0
:1023A000FEF768FDC11B414518D8D5F8900080079D
:1023B000F6D41EB1A86D20F08050A8652078800664
:1023C00029D5A0690028D5F8980013D040F0010065
:1023D000C5F89800FEF74EFD064606E075E000BF22
:1023E000FEF748FD801B02286FD8D5F898008007BB
:1023F000F6D510E020F00100C5F89800FEF73AFD90
:10240000064604E0FEF736FD801B02285DD8D5F8AD
:1024100098008007F6D4E069F0B3A968C1F38101A0
:1024200003295DD00228286820F08070286003D03E
:10243000FEF720FD04464BE0FEF71CFD064604E0D7
:10244000FEF718FD801B02283FD828688001F7D4CA
:10245000F4E908016FF00F0202EB01110843218A31
:102460005204490802EB4151A26841EA02210843A3
:10247000217D4FF07E42490802EB41610843217BF8
:1024800040EAC160E968324A11400843E8602868C0
:1024900040F08070286000E05EE0E86840F0807006
:1024A000E860FEF7E7FC044605E000BFFEF7E2FC4B
:1024B000001B022809D828688001F7D54CE000BF2E
:1024C000FEF7D8FC001B022802D90320BDE8F883E0
:1024D00028688001F4D4E8681E490840E8603BE0C1
:1024E0000128F3D0E868226A00F00301914226D166
:1024F000616A00F0F0020901103991421FD1A26A0D
:1025000000F4FE41B1EB022F19D194F82C2000F019
:102510007841B1EBC26F12D1218E00F4C00249089C
:102520004905A1F50011914209D194F8341000F049
:10253000C06049084906A1F1007181420CD0012018
:10254000C4E70000001002400000002000700040BE
:102550000C809F01FCFFEEFE0020B7E770B5040081
:1025600009D0606A002540B125616561A56294F8D3
:102570005D0040B10CE0012070BD6068B0F5827F65
:10258000F4D0E561F2E784F85C50204600F05CF896
:10259000022084F85D002068016821F0400101609C
:1025A000E1684FF4E062914201D9002001E04FF46C
:1025B0008050B1F5706F02D0914200D0A562A18821
:1025C000228901F4827102F404421143227C02F058
:1025D00002021143227D02F001021143228B02F418
:1025E00000721143227F02F03802114394F8202038
:1025F00002F080021143228D02F40052114322683E
:102600001160A169042202EA114194F8242000F427
:10261000805002F01002114394F8342002F00802B6
:102620001143A28902F470621143014320684160A2
:102630002068C16921F40061C1612566012084F828
:102640005D00002070BD000030B587B00446142145
:102650006846FDF717FE24681F4D00211F4802231E
:102660000522AC4219D1046E44F480540466046E11
:1026700004F480540594C46C44F00104C464C06C38
:1026800000F001000590E0200090CDE90131CDE996
:10269000031269464FF090401AE0114DAC4219D137
:1026A000846D44F480448465846D04F4804405940E
:1026B000C46C44F00204C464C06C00F002000590D5
:1026C000A8000090CDE90131CDE903126946054823
:1026D000FEF7A6FA07B030BD0030014000100240FE
:1026E00000380040000400482DE9F84F044690F8F7
:1026F0005D00984616460F460025012801D00225A8
:10270000ACE060684FF0040BB0F5827F01D1A068A7
:1027100030B394F85C0001282DD04FF0010984F803
:102720005C90FEF7A7FB8246002F77D0002E75D075
:1027300084F85DB0002020662764A4F84460A4F803
:102740004660A063A087E087E0642065E0684FF4FE
:10275000E0618842206842680FD922F480520EE07E
:1027600084F85DB013460A462046CDF8008000F09C
:1027700043F9BDE8F88F0220FBE742F48052426043
:10278000A068B0F5004F09D12068026822F040022D
:1027900002602068026822F48042026020680268B9
:1027A000520603D4026842F040020260E0688842A8
:1027B0001DD941E020688168C9070BD0007B216CDE
:1027C0000870206C401C2064B4F84600401EA4F839
:1027D00046000CE0FEF74EFBA0EB0A01414503D397
:1027E000B8F1FF3F03D007E0B8F1000F04D0B4F810
:1027F00046000028DED123E003252DE02068816813
:10280000C9070CD0C068216C0880206C801C206433
:10281000B4F84600401EA4F846000DE01AE0FEF7AA
:1028200029FBA0EB0A01414503D3B8F1FF3F03D0D8
:10283000E2E7B8F1000FDFD0B4F846000028DDD1A0
:1028400052464146204601F081FE08B12020206614
:10285000206E08B1012501E084F85D90002084F825
:102860005C00284685E72DE9F84F044690F85C00A7
:102870000026984615468A4601280CD0012784F880
:102880005C70FEF7F7FA814694F85D00B3460128C4
:1028900004D00226ACE00220BDE8F88FBAF1000FA8
:1028A00079D0002D77D0032084F85D00C4F860B0A3
:1028B000C4F838A0A587E587C4F840B0A4F844B0B0
:1028C000A4F846B0C4F850B0C4F84CB0A068B0F555
:1028D000004F09D12068016821F0400101602068A3
:1028E000016841F48041016020680168490603D411
:1028F000016841F040010160E068B0F5E06F606898
:1029000028D908B1012D1FD1A06B21680088C860AB
:1029100006E020688168890709D5A16B0988C16034
:10292000A06B801CA063E08F401EE0870CE0FEF7E8
:10293000A1FAA0EB0901414503D3B8F1FF3F03D051
:1029400006E0B8F1000F03D0E08F0028E1D13BE0B2
:1029500003264BE008B1012D33D1E08F0128A06B95
:1029600003D921680088C8600FE0216800780873E7
:1029700014E0E08725E020688168890714D5E18F9D
:102980000129A16B08D90988C160A06B801CA063D4
:10299000E08F801EEDE727E009780173A06B401CF3
:1029A000A063E08F401EE4E7FEF764FAA0EB0901A4
:1029B000414503D3B8F1FF3F03D0C9E7B8F1000F99
:1029C000C6D0E08F0028D6D14A464146204601F0C5
:1029D000F7FD08B120202066A06818B92068C168FA
:1029E00080680090206E08B1012601E084F85D70D7
:1029F00084F85CB030464FE72DE9FF5F044690F85D
:102A00005C0000260E9F1D4693464FF001090128E9
:102A10000FD04FF0010A84F85CA0FEF72BFA804635
:102A200094F85D00616801280DD0B1F5827F08D16E
:102A300003E0022004B0BDE8F09FA16809B90428B2
:102A400001D0022609E10198002876D0BBF1000FE1
:102A5000FBD0002DF9D094F85D00042802D00520A9
:102A600084F85D0000202066C4F840B0A4F8465009
:102A7000A4F844500199A163E587A587E064206527
:102A8000E0684FF4E061884201D8012D04D9206844
:102A9000426822F4805203E02068426842F4805287
:102AA000426020680268520603D4026842F0400285
:102AB0000260E0688842606848D908B1012D3DD1C4
:102AC000A06B21680088C860A06B801CA063E08FA9
:102AD000401EE08732E02068816889070FD5E18FCA
:102AE00069B1B9F1010F0AD1A16B0988C160A06B6E
:102AF000801CA063E08F401EE0874FF00009206833
:102B00008168C9070FD0B4F8461061B1C068216C64
:102B10000880206C801C2064B4F84600401EA4F895
:102B200046004FF00109FEF7A5F9A0EB0800B842F6
:102B300004D3781C02D003268DE08AE0E08F0028C1
:102B4000C9D1B4F846000028C5D177E008B1012DFD
:102B50006DD1E08F0128A06B08D921680088C8607A
:102B6000A06B801CA063E08F801E07E021680078C6
:102B70000873A06B401CA063E08F401EE08756E006
:102B80002068816889071AD5E18FC1B1B9F1010FB9
:102B900015D1E18F0129A16B07D90988C160A06B0C
:102BA000801CA063E08F801E06E009780173A06B93
:102BB000401CA063E08F401EE0874FF000092068B2
:102BC0008168C90728D0B4F8461029B3B4F8461074
:102BD000012914D9C068216C0880206C801C2064F5
:102BE000B4F84600801EA4F84600B4F84600012858
:102BF00010D82068416841F4805141600AE0007BB0
:102C0000216C0870206C401C2064B4F84600401E03
:102C1000A4F846004FF00109FEF72CF9A0EB0800DC
:102C2000B84202D3781C02D085E7002F83D0E08F12
:102C30000028A5D1B4F846000028A1D14246394663
:102C4000204601F0BDFC10B1012620202066206E38
:102C500008B1012601E084F85DA0002084F85C0042
:102C60003046E7E610B5401EB0F1807F01D3012069
:102C700010BD4FF0E02460610F21601703F088FF62
:102C80000020A06107202061002010BD7047704720
:102C90007047704770477047F0B590F83C20012AA4
:102CA0003AD0012580F83C50022280F83D2003688C
:102CB0005A689C68194E1A4FB34201D0BB4204D1E6
:102CC00022F4700C4A6842EA0C02DFF858C002EAAB
:102CD0000C02D1F800C04CEA020CC3F804C0026830
:102CE000B2420DD0B2F1804F0AD00F4B9A4207D0BA
:102CF0000E4B9A4204D0BA4202D00D4B9A4204D1F4
:102D0000896824F080031943916080F83D500021C8
:102D100080F83C100846F0BD0220F0BD002C0140B8
:102D2000003401408FFFFFFD000400400008004018
:102D300000400140704710B5040003D094F83D00F6
:102D400010B107E0012010BD002084F83C002046AF
:102D500000F022F8022084F83D00211D206801F0D7
:102D600071FD012084F8480084F83E0084F83F009B
:102D700084F8400084F8410084F8420084F843005D
:102D800084F8440084F8450084F8460084F847003D
:102D900084F83D00002010BD08B500680B4988424A
:102DA00012D10B48016E41F400610166006E0022F1
:102DB00000F40060009011461920FEF7C3F9BDE849
:102DC00008401920FEF7B0B908BD0000002C0140F2
:102DD0000010024090F83D10012901D001207047F9
:102DE000022180F83D1000680F4988420ED0B0F1F2
:102DF000804F0BD00D49884208D00D49884205D03C
:102E00000C49884202D00C49884207D181680B4A9C
:102E10001140062906D0B1F5803F03D0016841F08A
:102E20000101016000207047002C014000040040B7
:102E3000000800400034014000400140070001004C
:102E400090F83D10012901D001207047022180F83F
:102E50003D100168CA6842F00102CA60006810496A
:102E600088420ED0B0F1804F0BD00E49884208D076
:102E70000D49884205D00D49884202D00C4988424C
:102E800007D181680B4A1140062906D0B1F5803F71
:102E900003D0016841F0010101600020704700008B
:102EA000002C0140000400400008004000340140B4
:102EB000004001400700010070B5044690F83C0056
:102EC0000025012814D0012684F83C60022084F8F3
:102ED0003D0022689068364B184020F47F40906097
:102EE000086870282ED010DC10F00F0F03D021E0FE
:102EF0004FF0020070BD4FEA2012072A1AD2DFE815
:102F000002F0525252524A3840002A4BC21A98429A
:102F100049D009DCB0F5805F0DD0B0F5005F1CD062
:102F2000B0F1101F06D13EE0102A3CD0202A3AD042
:102F3000502A38D0012584F83D60002084F83C00F8
:102F4000284670BDCB68D1E90121206801F0E5FC7D
:102F50002068816841F0770109E0CB68D1E901215F
:102F6000206801F0DAFC2068816841F480418160CA
:102F7000E1E7CA684968206801F07AFE50212068BC
:102F800006E0CA684968206801F083FE6021206875
:102F900001F0CEFCCFE7CA684968206801F068FEFE
:102FA00040212068F4E7226801461046F0E700005F
:102FB00088FFCEFF2000100070472DE9F041044645
:102FC0000068C66805694FF00007A90713D5B10767
:102FD00011D5F91E016101202077206880698007E2
:102FE000204602D0FFF7E8FF04E000F019F9204680
:102FF00000F010FA2777680716D5700714D52168F6
:103000006FF004000861022020772068806910F4C6
:10301000407F204602D0FFF7CFFF04E000F000F928
:10302000204600F0F7F92777280715D5300713D584
:1030300021686FF008000861042020772068C069CB
:103040008007204602D0FFF7B7FF04E000F0E8F861
:10305000204600F0DFF92777E80616D5F00614D5EC
:1030600021686FF010000861082020772068C0698F
:1030700010F4407F204602D0FFF79EFF04E000F0EE
:10308000CFF8204600F0C6F92777E80708D0F00708
:1030900006D021686FF001000861204600F03AFA7E
:1030A000280601D4A80408D5300606D521686FF497
:1030B000025008612046FFF7EAFDE80508D5300612
:1030C00006D521686FF4807008612046FFF7DEFDA9
:1030D000680608D5700606D521686FF040000861C3
:1030E000204600F033FAA80608D5B00606D52168B8
:1030F0006FF0200008612046FFF7CAFDE80208D5FE
:10310000F00206D521686FF4801008612046FFF7B1
:10311000C1FDA80208D5B00206D521686FF40010E1
:1031200008612046FFF7B5FD680208D5700206D594
:1031300021686FF4800008612046FFF7ACFD28028B
:103140000AD5300208D521686FF4000008612046D6
:10315000BDE8F041FFF7EEBDBDE8F081F0B587B006
:10316000044614216846FDF78DF82068002428499C
:103170000225284EB0F1804F0CD0274A904233D11F
:10318000C86C40F00200C864C86C00F002000590F2
:10319000302035E0C86C40F00100C864C86C00F015
:1031A00001000590C86C40F00200C864C86C01279B
:1031B00000F00200059048F20C000090CDE90154A7
:1031C000CDE9034769464FF09040FDF729FD0820FF
:1031D0000090CDE90154CDE903476946304600BF70
:1031E000FDF71EFD07B0F0BD0C4A9042FAD1C86C45
:1031F00040F00200C864C86C00F002000590C020D6
:103200000090CDE9015469463046CDE90345E7E732
:103210000010024000040048000400400008004084
:10322000704770B5044690F83C0000260D46012812
:103230000BD0012084F83C000C2A4AD007DC82B174
:10324000042A20D0082A06D131E0022070BD102ABD
:1032500053D0142A63D00126002084F83C00304665
:1032600070BD206801F06EFB2068816941F00801A3
:1032700081612068816921F0040181612068816990
:103280002A69114311E0206801F0AAFB20688169D6
:1032900041F4006181612068816921F4806181616C
:1032A000206881692A6941EA02218161D4E72068A6
:1032B00001F0DEFB2068C16941F00801C1612068AE
:1032C000C16921F00401C1612068C1692A69114303
:1032D00011E0206801F014FC2068C16941F400612C
:1032E000C1612068C16921F48061C1612068C16940
:1032F0002A6941EA0221C161AEE7206801F048FC79
:103300002068016D41F0080101652068016D21F020
:10331000040101652068016D2A69114311E02068EC
:1033200001F06EFC2068016D41F4006101652068C8
:10333000016D21F4806101652068016D2A6941EA0F
:103340000221016588E710B5040003D094F83D0020
:1033500010B107E0012010BD002084F83C00204699
:1033600000F022F8022084F83D00211D206801F0C1
:1033700069FA012084F8480084F83E0084F83F0090
:1033800084F8400084F8410084F8420084F8430047
:1033900084F8440084F8450084F8460084F8470027
:1033A00084F83D00002010BD08B501681648B1F151
:1033B000804F0AD0154A914219D1816D41F0020126
:1033C0008165806D00F002001BE0816D41F001011C
:1033D0008165806D002200F00100009011461C20E4
:1033E000FDF7B0FEBDE808401C20FDF79DBE084A71
:1033F000914207D1816D41F004018165806D00F03B
:103400000400009008BD00000010024000040040CD
:10341000000800407047000030B50446022269B140
:10342000042912D0082917D00C291CD0102921D02A
:1034300094F84300012824D0012030BD94F83E00C8
:103440000128F9D184F83E201DE094F83F000128BE
:10345000F2D184F83F2016E094F840000128EBD127
:1034600084F840200FE094F841000128E4D184F86A
:10347000412008E094F842000128DDD184F8422080
:1034800001E084F843200122206801F039FA194B49
:1034900020681949194A984209D0884207D09042B9
:1034A00005D0174DA84202D0164DA84203D1456C55
:1034B00045F400454564206898420CD0B0F1804F37
:1034C00009D0114B984206D0104B984203D0884245
:1034D00001D0904207D181680D4A1140062906D0DB
:1034E000B1F5803F03D0016841F001010160002087
:1034F00030BD0000002C014000340140004001407C
:103500000044014000480140000400400008004021
:10351000070001000B49884213D10B480121827832
:1035200002B1C1708170C168491CC160C188491C69
:1035300089B2C180B1F57A7F01D30021C18003F047
:10354000ADBF7047EC02002010000020704790F8DB
:103550008410012918D0012180F884102421C0F89A
:10356000881001680A680B6823F001030B6022F0E1
:10357000005100224266036819602021C0F88810BB
:1035800080F88420104670470220704770477047CB
:1035900070B5044690F8840001281DD0012084F8FD
:1035A00084002420C4F8880020680568026822F09E
:1035B000010202602068826822F060620A43826031
:1035C000204601F079FB206805602020C4F88800BF
:1035D000002084F8840070BD022070BD70B50446E0
:1035E00090F8840001281DD0012084F88400242054
:1035F000C4F8880020680568026822F001020260B1
:103600002068826822F060420A438260204601F00E
:1036100053FB206805602020C4F88800002084F84F
:10362000840070BD022070BD704770477047000075
:103630002DE9F04103680446D86919689A6840F694
:103640000F0528424FF000054FF002060AD1870609
:103650007ED501F0200702F0805C57EA0C0777D096
:10366000616F3AE1B24FDFF8CCC2174001EA0C0CAF
:1036700057EA0C0C6CD05FEAC07C0CD05FEAC15CEE
:1036800009D54FF0010CC3F820C0D4F8903043F0B6
:103690000103C4F89030830709D5D30707D0236806
:1036A0001E62D4F8903043F00403C4F8903043070E
:1036B0000AD5D30708D0266804233362D4F89030A3
:1036C00043F00203C4F8903003070CD501F0200347
:1036D0003B4308D0266808233362D4F8903043F087
:1036E0000803C4F8903003050BD54B0109D52668B3
:1036F0004FF400633362D4F8903043F02003C4F8F1
:103700009030D4F89030002B3DD0800609D501F0E0
:10371000200002F08051084303D0616F09B12046B8
:103720008847D4F8900021688968490602D410F0CF
:10373000280F2AD0204601F047FC20688068400608
:103740001ED52068083050E8001F21F0400100E03D
:1037500021E040E80012002AF3D1D4F8800078B1CB
:1037600075498163D4F88000FDF709F900280AD073
:10377000D4F88000816B00E02046BDE8F0410847A6
:103780002046FFF753FFBDE8F0812046FFF74EFFCC
:10379000C4F89050F7E7D4F86CC02027BCF1010FB3
:1037A0007ED15FEAC06C7BD55FEAC16C78D5102012
:1037B000186220688068400645D5D4F880100868F3
:1037C00040680004000CDED0B4F85C208242DAD9F4
:1037D000A4F85E000868006880062CD4216851E8CF
:1037E000000F20F4807041E80002002AF6D1206822
:1037F000083050E8001F21F0010140E80012002AC3
:10380000F5D12068083050E8001F21F0400140E861
:103810000012002AF5D1C4F88C70E566206850E8E3
:10382000001F21F0100140E80012002AF6D1D4F860
:103830008000FDF76FF82667B4F85C00B4F85E10FE
:10384000401A81B230E0B4F85C00B4F85E10401A5F
:1038500081B2B4F85E00002895D0002993D0226888
:1038600052E8000F20F4907042E80003002BF6D1DC
:103870002F4BDB432068083050E8002F1A4040E807
:10388000002CBCF1000FF5D1C4F88C70E5666567BB
:10389000226852E8000F20F0100042E8000300E028
:1038A00006E0002BF4D126672046FFF76FFE6AE79B
:1038B000C60209D5560207D54FF48010186220467B
:1038C000BDE8F041FFF7B1BE03060AD501F0800361
:1038D00002F40002134304D0A16F00297FF44CAF1F
:1038E00051E7420611D54A060FD52046026852E834
:1038F000001F21F0400142E80013002BF6D1C0F870
:103900008870856700F07EF93DE7020206D54A001F
:1039100004D52046BDE8F041FFF786BEC001C6D5FC
:103920000029C4DA2046BDE8F041FFF730BE0000B0
:103930000100001020010004714E000810B50400C1
:1039400003D0D4F8880010B107E0012010BD00209A
:1039500084F88400204600F027F82420C4F888006A
:103960002068016821F001010160A06A10B12046C1
:1039700001F0C4F9204601F069FB0128E6D0206877
:10398000416821F4904141602068816821F02A015A
:1039900081602068016841F0010101602046BDE8B6
:1039A000104001F00FBA00002DE9F04198B0064632
:1039B000142111A8FCF766FC44216846FCF762FC60
:1039C00048493068484D022700244FF007088842D4
:1039D00027D10120CDE900046846FEF72FF908B190
:1039E000FCF796FF286E40F480402866286E00F4AD
:1039F00080401690E86C40F00100E864E86CCDE986
:103A0000127400F0010016904FF4C060CDE9144824
:103A1000119011A94FF09040FDF702F918B0BDE8E0
:103A2000F08132498842F9D104200090039468461D
:103A3000FEF704F908B1FCF76BFFA86D40F4802095
:103A4000A865A86D00F480201690E86C40F0020094
:103A5000E864E86CCDE9127400F0020016904FF4AF
:103A60004060CDE91448119011A92148FDF7D8F81C
:103A7000214D204805F1080128601D2068601020B4
:103A8000802781E891006C614FF48058AC61C5E9F2
:103A900007482846FDF70CF808B1FCF739FFF56731
:103AA000AE62154D13486035143028601C20C5E9FE
:103AB0000104C5E903476C61AC61C5E907482846C4
:103AC000FCF7F6FF08B1FCF723FFC6F88050002290
:103AD00011462720AE62FDF735FB2720FDF724FBBA
:103AE0009CE7000000380140001002400048004000
:103AF00000040048080002404405002030B4D0F81B
:103B00008C30202B02D0022030BC7047A9B1A2B16A
:103B10000023C3660A4C0368A3420BD05B681B02F8
:103B200008D5046854E8003F43F0806344E800355A
:103B3000002DF6D130BC01F0C3BB0120E4E700004A
:103B400000800040084910B588420CD1074C20780D
:103B500003F0CCFC002020702146BDE8104001227B
:103B60000148FFF7CBBF10BDB00400203800002093
:103B70007047000070B50446D0F88800202801D0B6
:103B8000022070BD39B332B32165A4F85420A4F8E3
:103B900056200021C4F890102120C4F88800E06F5E
:103BA000D8B1154BC362E36F14481863E36F144830
:103BB0005863E06F134681632068E56F00F12802C7
:103BC0002846216DFCF7D4FF38B11020C4F89000CE
:103BD0002020C4F88800012070BD216840200862C0
:103BE0002068083050E8001F41F0800140E80012D2
:103BF000002AF5D1002070BD7B4F0008BD4F0008A2
:103C0000854E00080349884202D10349002088708C
:103C100070470000B0040020380000207047FEE725
:103C2000F0B500230A24302537261F4611E000BFD7
:103C3000B4EB107F02D905EB107C01E006EB107CA1
:103C400001F813C001EB430C00015B1C8CF8017000
:103C5000DBB29342ECD3F0BD114808B5816C41F062
:103C600004018164816C01F004010091816C41F0D8
:103C700001018164806C002200F001000090114677
:103C80000B20FDF75FFA0B20FDF74EFA00221146DC
:103C90000C20FDF757FABDE808400C20FDF744BAA8
:103CA000001002402DE9F04387B014216846FCF76C
:103CB000E9FA3048C16C41F00401C164C16C01F003
:103CC00004010591C16C41F02001C164C16C01F097
:103CD00020010591C16C41F00101C164C16C01F08A
:103CE00001010591C16C41F00201C164C06C224F19
:103CF00000F002004EF6404405900022214638466E
:103D0000FDF7B2F84FF09048002213214046FDF72E
:103D1000ABF8DFF8689041F20606002231464846CB
:103D2000FDF7A2F80125CDE900450024029469467B
:103D300038460394FCF774FF13200090CDE901543A
:103D4000694640460394FCF76BFF40F20120CDE941
:103D50000004694648460294FCF762FF0096CDE9EC
:103D60000154694648460394FCF75AFF07B0BDE882
:103D7000F0830000001002400008004800040048E2
:103D8000134810B511490160124941600021012218
:103D9000C0E90212016141618161C1610162FDF707
:103DA000C3F808B1FCF7B4FD00210948FDF768F835
:103DB00008B1FCF7ADFD00210548FDF78CF800289F
:103DC00003D0BDE81040FCF7A3BD10BD0058004073
:103DD000D00100208C5F5060124810B5104901607E
:103DE0004FF48271416000214FF4E062C0E9021299
:103DF0000222026101224261520282611822C0E95C
:103E0000072107224162C0E90A1201634163FEF7FC
:103E1000A5FB002803D0BDE81040FCF779BD10BD1C
:103E20000030014024020020124810B51049016002
:103E30004FF48271416000214FF4E062C0E9021248
:103E40004FF400720161C0E905121822C0E9072190
:103E500007224162C0E90A12016308214163FEF7AB
:103E60007DFB002803D0BDE81040FCF751BD10BD1C
:103E7000003800408802002010B588B0002419489E
:103E800005940694039404940094019414490294B4
:103E90000160A721C0E9011440F2E731C0E9031431
:103EA0008021C0E90541FEF746FF08B1FCF730FD6F
:103EB0004FF48050039003A90A48FEF7FDFF08B1B4
:103EC000FCF726FD00940194694606480294FEF72B
:103ED000E3FE002801D0FCF71BFD08B010BD000078
:103EE000002C0140EC02002010B58AB00024079499
:103EF00008941C2168460994FCF7C4F922484FF045
:103F0000804101600921C0E9011440F2FF71C0E95C
:103F1000031480218161FFF716FA08B1FCF7F8FC61
:103F2000079407A918480994FEF7B6FE08B1FCF7F4
:103F3000EFFC6020CDE9000402940022694612489B
:103F40000494FFF76EF908B1FCF7E2FC042269461D
:103F50000D48FFF766F908B1FCF7DAFC082269465C
:103F60000948FFF75EF908B1FCF7D2FC0C2269465C
:103F70000548FFF756F908B1FCF7CAFC0248FFF7FD
:103F8000EDF80AB010BD00003803002010B58AB06B
:103F90000024079408941C2168460994FCF772F9E0
:103FA00019481849C0E900144FF6FF71C0E90241F1
:103FB00004618461FFF7C7F908B1FCF7A9FC079415
:103FC00007A911480994FEF767FE08B1FCF7A0FCA9
:103FD0006020CDE900040294002269460A48049456
:103FE000FFF71FF908B1FCF793FC04226946064865
:103FF000FFF717F908B1FCF78BFC0348FFF7AEF8A1
:104000000AB010BD000400408403002010B58AB03F
:104010000024079408941C2168460994FCF732F99F
:1040200019481849C0E900144FF6FF71C0E9024170
:1040300004618461FFF787F908B1FCF769FC079414
:1040400007A911480994FEF727FE08B1FCF760FCA8
:104050006020CDE900040294002269460A480494D5
:10406000FFF7DFF808B1FCF753FC04226946064865
:10407000FFF7D7F808B1FCF74BFC0348FFF76EF8E1
:104080000AB010BD00080040D0030020184810B549
:10409000164901604FF4E1314160002181600C223A
:1040A000C160C0E904128161C16101624162816243
:1040B000FFF744FC08B1FCF72BFC00210C48FFF78C
:1040C0008DFA08B1FCF724FC00210948FFF760FADB
:1040D00008B1FCF71DFC0648FFF739FA002803D0A9
:1040E000BDE81040FCF714BC10BD000000380140D2
:1040F0001C040020184810B5164901604FF47A31AD
:104100004160002181600C22C160C0E9041281611C
:10411000C161016241628162FFF710FC08B1FCF7E6
:10412000F7FB00210C48FFF759FA08B1FCF7F0FB48
:1041300000210948FFF72CFA08B1FCF7E9FB064813
:10414000FFF705FA002803D0BDE81040FCF7E0BBFC
:1041500010BD000000480040B004002010B500224F
:104160000F49104801F05AFC08B1FCF7D1FB0E4989
:104170000C4801F02AFE08B1FCF7CAFB0B490948BC
:1041800001F098FA08B1FCF7C3FB064801F098FE6D
:10419000002803D0BDE81040FCF7BABB10BD0000FA
:1041A00054000020980B002098010020A800002057
:1041B000FEE7FEE72DE9F84F044640F68F7A40F21D
:1041C000064B48F60F784FF00009B5E1B0F84410FF
:1041D00011F00F053AD030F8256031047DD530F864
:1041E000251001EA0A0141F0800120F8251005EBB5
:1041F000850004EBC00797F85C0107F5A877002855
:104200006CD0F87802286AD03978226832F8210018
:1042100048F68F73184048F2C003184322F8210073
:104220003878D4F800C03CF820104904BCF850108D
:1042300001EB0C027ED540F2024101EBC000105AA6
:104240008005800D009076D03A89D0E0C9062AD446
:10425000018801EA080141F400410180206804F16D
:104260001005B0F85010227C014440F2024000EBEF
:10427000C200085AC0F30900E062616A0844606243
:1042800000212046FCF7E2FF207B00289DD0A86992
:1042900000289AD1207B40F080012068A0F84C10C3
:1042A00084F80C9048E1018804F5A8750A051ED52C
:1042B000B0F850102A7801440BEBC200085A04F5FC
:1042C0002671C0F30903EB61EA88206802F017FC4D
:1042D0002168088800EA0A0002E0A4E068E077E0CC
:1042E00040F0800008802046FDF713FC24E109041B
:1042F000D8D5018801EA0A0141F0800101802068D7
:10430000B0F850100A1828780BEBC000105A83053B
:104310009B0DEB610DD0696959B1EA88206802F004
:10432000EEFBE96968690844686100212046FCF7F2
:1043300096FF01E053E051E0206801880A05B1D4FE
:10434000C1F301310329ADD0B0F850100844B0F8E2
:104350000614C1F30901A0F80614296900F2064009
:104360003E2909D94A09C90600D1521E01884FF4D5
:10437000004343EA822209E0B1B14A08C90700D0EC
:10438000521C01884FF6FF7303EA82221143018019
:10439000216808884BF68F72104080F4405048F234
:1043A000800210430880C7E0018841F40041EEE735
:1043B0002068B0F850103B780A180BEBC301515A33
:1043C0008905890D009117D0FA887969009B11E061
:1043D000324639462046FCF79EFF00900CE00BEB7E
:1043E000C000105A8005800D009005D07A890346E0
:1043F0006046796902F083FBF96900980844F86126
:104400007969009808447861B86918B139690098E9
:10441000814204D939782046FCF721FF03E0394670
:10442000206802F0E9F830062DD505EB850004EB95
:10443000C001206830F8252002EA080242F4004258
:1044400020F82520C87C103101281DD0F0056FD43C
:104450002268B2F8500083180A7840F2024000EB5C
:10446000C200185A8A69C0F30900824258D9121A48
:104470008A6157D04A6902444A61CA691044C861D6
:10448000206802F0B9F857E0C1F818900A7B484656
:104490001AB3720622D54A7812B1012A14D041E02B
:1044A0002068B0F8502010440A7800EBC200B0F841
:1044B0000224C2F30902A0F80224B0F8022442F454
:1044C0000042A0F802242DE02268B2F850301A44CD
:1044D0000B7802EBC302A2F8020423E04B782268B7
:1044E00013B1012B13D01DE0B2F8500010440A782C
:1044F00000EBC200B0F80624C2F30902A0F80624BB
:10450000B0F8062442F40042A0F806240AE0B2F80B
:1045100050301A440B7802EBC302A2F8060401E003
:10452000C1F8189009782046FCF790FE04E0FFE7F8
:1045300032462046FCF75DFF2068B0F844100904BD
:104540003FF544AE0020BDE8F88F70472DE9F843F1
:10455000044640684FF48276154689464FF400477A
:104560004FF48068B04209D1A068B84201D04045FC
:1045700004D12068016821F0400101604B4600220F
:1045800080212046009500F0AFF880B96068B04205
:1045900014D1A068B84201D040450FD14B4600224B
:1045A0004FF4C0612046009500F02EF830B1206E27
:1045B00040F0200020660320BDE8F8830020FBE7E0
:1045C000F8B515460E460B460092044600224FF4FD
:1045D000C05100F019F888B93346002280212046E6
:1045E000009500F081F848B9334600224FF4C061CD
:1045F0002046009500F008F8002804D0206E40F016
:10460000200020660320F8BD2DE9FE4F4FF0000A80
:10461000984617460E4604460C9D8DF804A0FCF7FC
:1046200029FC411BA8EB0105FCF724FC814620680E
:104630004FF4C06B0C3002902A480068C0EBC000F9
:1046400000EB8000000D6843009043E05E4506D11A
:104650002FB9029800788DF804009DF80400B8F195
:10466000FF3F37D0FCF706FCA0EB0900A84203D2BD
:1046700015B1009858B32BE02068416821F0E001A3
:1046800041606068B0F5827F0BD1A068B0F5004F43
:1046900002D0B0F5806F04D12068016821F040019C
:1046A0000160A06AB0F5005F09D12068016821F4BB
:1046B000005101602068016841F40051016001204F
:1046C00084F85D0084F85CA00320BDE8FE8F00251F
:1046D000401E0090206880683040B842B6D100206B
:1046E000F3E700000C0000202DE9F8431E46914638
:1046F00088460446089DFCF7BDFB401B351AFCF7B5
:10470000B9FB074625480068C0F3CB30684338E062
:10471000701C37D0FCF7AEFBC01BA84203D215B10A
:10472000009860B32CE02068416821F0E00141600E
:104730006068B0F5827F0BD1A068B0F5004F02D061
:10474000B0F5806F04D12068016821F0400101605C
:10475000A06AB0F5005F09D12068016821F400511A
:1047600001602068016841F400510160012084F873
:104770005D00002084F85C000320BDE8F88300257C
:10478000401E00902068816838EA010004D00021B2
:104790004945BDD10020F0E70121F9E70C000020D8
:1047A00070470178407841EA00207047FCF76ABC06
:1047B00010B594B038216846FBF764FD14210EA8AB
:1047C000FBF760FD0020FDF7D3F9212000904FF4A6
:1047D000803001900120032404210690CDE9084196
:1047E00002207021CDE90A1007900C900D906846C8
:1047F000FDF7B2FC08B172B6FEE70F20CDE90E045A
:10480000002010901190129004210EA8FDF75AFB81
:10481000002801D072B6FEE714B010BD024801684E
:1048200041F470010160704788ED00E00148FEF737
:10483000C4BB0000EC0200200148FEF7BEBB000034
:10484000380300202DE9F0430268264B264D274E01
:10485000274C4FF08049984207D0484505D0A842E0
:1048600003D0B04201D0A04203D122F070074A68C1
:104870003A43204FDFF880C0DFF8808098420DD0A7
:1048800048450BD0A84209D0B04207D0A04205D07D
:10489000B84203D0604501D0404503D122F44075B1
:1048A000CA682A434D6922F080022A4302608A685E
:1048B000C2620A688262984207D0A04205D0B8421C
:1048C00003D0604501D0404501D109690163012150
:1048D00041610169C90703D0016921F0010101614A
:1048E000BDE8F083002C01400004004000080040B7
:1048F00000340140004001400044014000480140B4
:1049000010B501F01F030121046A99408C43046231
:10491000016A9A401143016210BD10B5846842EAF1
:10492000032224F47F440A432243826010BD000026
:104930008268034B1A400A4342F0070181607047C6
:104940008FFFCFFF2DE9F043056A026A22F00102D2
:104950000262436882691C4C25F0020522400C6803
:1049600022F0030214438A68194E2A43174D194F47
:10497000DFF864C0DFF86490A84207D0B04205D0E9
:10498000B84203D0604501D0484506D122F008085E
:10499000CA6842EA080222F00402A84207D0B042E4
:1049A00005D0B84203D0604501D0484505D14D69D6
:1049B00023F440731D438B692B4343608461496832
:1049C00041630262BDE8F0838FFFFEFF002C0140CF
:1049D00000340140004001400044014000480140D3
:1049E000F0B5056A026A22F0100202624268836929
:1049F000194C1B4E23400C6823F4407343EA0424F3
:104A000025F020038D6843EA0513144DA84201D018
:104A1000B04206D1CF6823F0800343EA071323F0A6
:104A20004003A8420AD0B04208D00E4DA84205D09B
:104A30000D4DA84202D00D4DA84207D14D6922F478
:104A4000406242EA85028D6942EA850242608461E1
:104A5000496881630362F0BDFF8FFFFE002C0140B7
:104A60000034014000400140004401400048014042
:104A7000F0B5056A026A22F4807202624368C26974
:104A8000194C1B4E22400C6822F00302144325F4FB
:104A900000728D6842EA0522144DA84201D0B0424E
:104AA00006D1CF6822F4006242EA072222F4806233
:104AB000A8420AD0B04208D00E4DA84205D00E4DF3
:104AC000A84202D00D4DA84207D14D6923F44053AE
:104AD00043EA05138D6943EA05134360C4614968DD
:104AE000C1630262F0BD00008FFFFEFF002C014099
:104AF00000340140004001400044014000480140B2
:104B0000F0B5056A026A22F4805202624268C36903
:104B1000194C1B4E23400C6823F4407343EA0424D1
:104B200025F400538D6843EA0533144DA84201D0A3
:104B3000B04206D1CF6823F4004343EA073323F49D
:104B40008043A8420AD0B04208D00E4DA84205D0FA
:104B50000D4DA84202D00D4DA84207D14D6922F457
:104B6000404242EA85128D6942EA85124260C46180
:104B7000496801640362F0BDFF8FFFFE002C014015
:104B80000034014000400140004401400048014021
:104B900030B5056A026A22F4803202624268036D0F
:104BA000114C23400C681C4325F400330D8943EA63
:104BB00005430E4DA8420BD00D4DA84208D00D4D17
:104BC000A84205D00C4DA84202D00C4DA84204D1F9
:104BD0004D6922F4803242EA052242600465496848
:104BE0008164036230BD00008FFFFEFF002C014096
:104BF00000340140004001400044014000480140B1
:104C000030B5046A026A22F4801202624268036DBF
:104C1000114D24F400142B400D6843EA05230D893F
:104C200044EA05540D4DA8420BD00D4DA84208D0C2
:104C30000C4DA84205D00C4DA84202D00B4DA84205
:104C400004D14D6922F4802242EA85224260036544
:104C50004968C164046230BDFF8FFFFE002C014033
:104C60000034014000400140004401400048014040
:104C700010B5036A046A24F001040462846924F014
:104C8000F00444EA021423F00A020A438461026237
:104C900010BD10B5036A046A24F01004046284692C
:104CA00023F0A00324F4704444EA023243EA0111E1
:104CB0008261016210BD000030B5416EB9B1026879
:104CC00091689268C1F342610B4B520F9C5CE50006
:104CD00003F10804A25CB5FBF2F2A0F86A205A5C6A
:104CE000615CD200B2FBF1F1A0F8681030BD012187
:104CF000A0F86A10F8E700003080000890F828104B
:104D0000090706D501684A68836B22F400421A43FA
:104D10004A6090F82810C90706D001684A68C36A3B
:104D200022F400321A434A6090F82810890706D509
:104D300001684A68036B22F480321A434A6090F893
:104D40002810490706D501684A68436B22F480227F
:104D50001A434A6090F82810C90606D501688A6887
:104D6000C36B22F480521A438A6090F82810890697
:104D700006D501688A68036C22F400521A438A60DF
:104D800090F82810490611D501684A68436C22F44E
:104D900080121A434A60416CB1F5801F06D1016848
:104DA0004A68836C22F4C0021A434A6090F82810C3
:104DB000090606D501684A68C06C22F40022024345
:104DC0004A6070472DE9F84300260446C0F8906019
:104DD000FCF750F88046206800684FF02005000777
:104DE0006FF07E4713D543460022290420460097E2
:104DF00000F0BAFA58B1216851E8000F20F08000A5
:104E000041E80002002AF6D1C4F8885021E0206869
:104E10000068400722D5434600224FF48001204617
:104E2000009700F0A1FAC8B1216851E8000F20F402
:104E3000907041E80002002AF6D12068083050E85E
:104E4000001F21F0010140E80012002AF5D1C4F84A
:104E50008C5084F884600320BDE8F883C4F888503F
:104E6000C4F88C5044F86C6F666026760020F3E737
:104E700010B5806A0021A0F85E10A0F85610FEF769
:104E8000D5FB10BD70B5846AD4F88800D4F88C5076
:104E9000216889684FF00006090606D5212804D14B
:104EA000A4F85660204600F0B9F8206880684006F3
:104EB00006D5222D04D1A4F85E60204600F084F8C7
:104EC000D4F8900040F01000C4F890002046FEF79F
:104ED000ADFB70BD10B50146806A096809684FF0E6
:104EE000000289062DD4A0F85E20036853E8001F55
:104EF00021F4807143E80014002CF6D101680831D8
:104F000051E8003F23F0010341E80034002CF5D1C3
:104F10000168083151E8003F23F0400341E80034C4
:104F2000002CF5D12021C0F88C10C16E012908D1C8
:104F3000016851E8003F23F0100341E80034002CE1
:104F4000F6D10267C16E012902D0FEF7FBFD10BD4C
:104F5000B0F85C10FEF71AFB10BD10B5806A012195
:104F60000167C16E012902D0FEF702FE10BDB0F844
:104F70005C104908FEF70AFB10BD10B50146806AB7
:104F800009680968890616D40021A0F8561001683E
:104F9000083151E8002F22F0800241E80023002B65
:104FA000F5D1026852E8001F41F0400142E80013C9
:104FB000002BF6D110BDFEF725FE10BD10B5806A9E
:104FC000FEF72CFE10BD000010B5026852E8001F6D
:104FD00021F4907142E80013002BF6D10E4B0268C9
:104FE000083252E8001F194042E80014002CF6D1A4
:104FF000C16E012908D1016851E8002F22F010028A
:1050000041E80023002BF6D12021C0F88C100021AC
:10501000C166416710BD0000FEFFFFEF026852E865
:10502000001F21F0C00142E80013002BF6D10168F7
:10503000083151E8002F22F4000241E80023002B40
:10504000F5D12021C0F88810704700002DE9F0410B
:105050000446016880682269E3691043626900259B
:105060001A431043DFF82CC20A688B4B1A400243E4
:105070000A6020684168E26821F4405111434160B0
:105080002168A069614501D0226A10438A68834B78
:105090001A4002438A602068C16A626A21F00F01E7
:1050A0001143C1627E4923687E488B420DD1D0F8FE
:1050B000880010F0030006D0012855D0022842D005
:1050C00003283FD152E001203DE077498B420BD1CC
:1050D000D0F8880010F00C0035D0042833D0082810
:1050E00040D00C282ED141E070498B420BD1D0F832
:1050F000880010F0300026D0102835D0202831D07C
:1051000030281FD132E06A498B420BD1D0F8880099
:1051100010F0C00017D0402826D0802822D0C02808
:1051200010D123E063450DD1D0F8880010F4406021
:1051300009D0B0F5806F17D0B0F5006F12D0B0F580
:10514000406F13D010205B495B4F00264FF40042A4
:1051500063453BD160B1022813D004280BD0082846
:1051600072D10DE00220EEE70420ECE70820EAE728
:10517000FCF796FF01E0FCF7B7FF010001D17CE0EE
:105180001146606A37F810206768B1FBF2F007EB50
:105190004703834270D8B0EB073F6DD80023084621
:1051A0001946FBF737F8090241EA10610202780854
:1051B000101871413A460023FBF72CF83F4AA0F53E
:1051C0004071914258D82168C86056E0E3694FF6B3
:1051D000EF7893422CD109284ED2DFE800F0050881
:1051E000114D0D4D4D4D1000FCF75AFF01E0FCF73D
:1051F00069FF010004D140E0FCF776FFF9E71146B2
:10520000606A37F81000B1FBF0F04100606801EB14
:105210005001B1FBF0F0A0F1100141452CD84FF640
:10522000F0710140C0F3420001432068C16024E0F6
:10523000092821D2DFE800F0050912200E202020E5
:105240001100FCF72DFF02E016E0FCF73BFF010028
:1052500004D112E0FCF748FFF9E71146606A37F81D
:105260001000B1FBF0F1606801EB5001B1FBF0F010
:10527000A0F1100141450AD901250120A4F86A00D6
:1052800024F8680F2846E6602661BDE8F08180B208
:1052900099E7000000800040F369FFCFFFF4FF11A1
:1052A0000038014000100240004400400048004027
:1052B000004C00400024F40018800008FFFC0F00A0
:1052C00070B58165A0F85C2000210446C0F89010FC
:1052D0002220C4F88C00D4F88000F0B11F4BC362C8
:1052E000D4F880301E481863D4F880301D485863C5
:1052F000D4F8800013468163A56D21682A462431C5
:10530000D4F88000FBF734FC38B11020C4F89000CA
:105310002020C4F88C00012070BD206940B12168B4
:1053200051E8000F40F4807041E80002002AF6D1F5
:105330002068083050E8001F41F0010140E80012E9
:10534000002AF5D12068083050E8001F41F04001E4
:1053500040E80012002AF5D1002070BDD54E0008AB
:105360005B4F0008854E00082DE9F0479946174627
:105370000D4604464FF00008089E33E0701C31D003
:10538000FBF778FDA0EB0900B04218D8BEB1206849
:105390000168490726D5802D24D0402D22D0C1692F
:1053A000C94309070DD4082505622046FFF70CFE06
:1053B000C4F8905084F884800120BDE8F087032071
:1053C000FBE7C069C04300050CD421684FF40060BE
:1053D00008622046FFF7F8FD2020C4F8900084F80A
:1053E0008480ECE72068C06935EA000004D0002022
:1053F000B842C3D00020E0E70120F9E70148FEF7FA
:1054000017B90000B004002010B50A46024903A0F5
:1054100000F0D4FA004810BD680E00204344432039
:10542000436F6E66696700002DE9F0410C46D0F8C5
:10543000C422D0F8BC12E9B104EB840600EB860567
:105440000027AB693BB102EBC602126AB3FBF2F66E
:1054500002FB163282B1C1F81472D0F8C00203699F
:105460002BB1D1F80802224601F5047198470020BB
:10547000BDE8F0810320FBE700231A462146AF6117
:1054800000F084FCF3E770B5D0F8BC4205466CB17F
:1054900000F073FBC4F80C02D5F8C012D4F8040273
:1054A000CA6804F503719047002070BD032070BDE9
:1054B00070B50446812100F0CDFA00252587012131
:1054C000204600F0C7FAA4F878518221204600F067
:1054D000C1FAA4F84C50A4F84E50D4F8BC0248B11C
:1054E000D4F8C00204F52F7440688047206800F0AB
:1054F0003CFE2560002070BD1220088000487047E7
:105500007800002010B5D0F8BC4284B1D0F8C012A9
:1055100059B194F80002FF2807D08B6894F8012253
:1055200021469847FF2084F80002002010BD032088
:1055300010BD00000A21018000487047C000002013
:105540004321018000487047100100204321018061
:1055500000487047CC00002043210180004870477C
:10556000540100202DE9F04704464FF4077000F085
:10557000FDFD05004FF0000735D0C4F8BC52207C7B
:105580004FF010084FF40079012680B34023022227
:105590008121204600F047FB26874023022201217B
:1055A000204600F040FBA4F87861A4F84E80082360
:1055B00003228221204600F036FBA4F84C60D4F888
:1055C000C00200688047C5F81472C5F81872207CC4
:1055D000D5F80422A8B140230121204600F02FFB7A
:1055E0000020BDE8F0870220C4F8BC72F9E7FFE7AD
:1055F0004B4602228121204600F015FB26874B46B0
:10560000CCE74B46E8E7000010B50A46024903A084
:1056100000F0D4F9004810BD680E00204344432038
:10562000496E74657266616365000000042008803D
:10563000004870477400002010B50A46024903A0D4
:1056400000F0BCF9004810BD680E002053544D69AD
:1056500063726F656C656374726F6E69637300006B
:1056600010B50A46024903A000F0A8F9004810BD91
:10567000680E002053544D333220566972747561A0
:105680006C20436F6D506F727400000010B5D0F83D
:10569000BC1251B1027C002AD1F8042207D0402369
:1056A000012100F0CCFA002010BD032010BD4FF402
:1056B0000073F5E719B1C0F8C0120020704703204D
:1056C0007047000010B51A2008800A480168001DC4
:1056D0000468001D0068081809D008220649FEF772
:1056E0009FFA0549042210312046FEF799FA024834
:1056F000801E10BD9075FF1F8E000020D0F8BC02E8
:1057000018B1C0F804120020704703207047D0F889
:10571000BC0228B1C0F81022C0F80812002070475F
:10572000032070472DE9FC410646D0F8BC720020EA
:105730000C468DF80000ADF80400054637B120781E
:1057400010F0600128D0202944D102E00320BDE8F8
:10575000FC81E288C2B1000660780AD5D6F8C01292
:105760008B6839469847E288072A00D907223946CC
:1057700028E087F80002A07987F80102E28839461C
:10578000304600F06CF82AE0D6F8C01260780022AB
:105790008B682146984722E0607830B101281ED0FE
:1057A0000A2809D00B2815D110E096F89C0203288E
:1057B00010D1022201A905E096F89C02032809D124
:1057C00001226946304600F064F808E096F89C0231
:1057D000032804D02146304600F036F80325284639
:1057E000B5E710B5D0F8BC12012219B1D1F81432C6
:1057F00013B10FE0032010BD0122C1F81422D1F82B
:105800001022C262D1F81032D1F80822812100F0B2
:10581000BDFA0022104610BD10B5D0F8B8220AB16A
:1058200052689047002010BD134610B50A4600216B
:1058300000F005FA002010BD134610B50A460021FD
:1058400000F0A4FA002010BD10B50446802100F03D
:1058500082FA2046BDE81040002100F07CBA10B565
:105860000323C0F89432C0F858211346C0F85C21D5
:105870000A46002100F0E3F9002010BD10B5052113
:10588000C0F8941200231A46194600F0D8F90020F7
:1058900010BD10B50223C0F8943282611346C26174
:1058A0000A46002100F072FA002010BD10B5042154
:1058B000C0F8941200231A46194600F067FA002037
:1058C00010BDF8B504460020ADF8000048880D462C
:1058D000010A062947D006DC01290FD0022912D07F
:1058E000032962D11DE0072946D00F295DD1D4F8E4
:1058F000B402C26920E0694690473BE0D4F8B41294
:10590000207C0A68F7E7207C02260028D4F8B80239
:1059100005D0C16A684688470146467036E0816A0C
:10592000F8E7C0B2062840D2DFE800F003090D1105
:105930001519D4F8B4024268B2B3207CDBE7D4F87E
:10594000B4028268F8E7D4F8B402C268F4E7D4F885
:10595000B4020269F0E7D4F8B4024269ECE7D4F883
:10596000B4028269E8E7207CF0B9D4F8B802416B50
:1059700068468847014609E0207CA8B9D4F8B802F7
:10598000016B68468847014607204870EA888AB15B
:10599000BDF8000040B1824200D90246ADF80020B7
:1059A0002046FFF776FFF8BDFFE729462046FFF7C0
:1059B0004BFFF8E72046FFF779FFF4E770B50023C7
:1059C00000281ED00025044602E06D1CEDB2641CC8
:1059D0002678002EF9D1022404EB450414801278B5
:1059E000CA545B1C0322CA5400245B1C06E0CA5440
:1059F0005B1CDAB28C54521CD3B2401C0278002AD1
:105A0000F5D170BD01004FF0000004D0012901D094
:105A1000022901D0032070470120704778B100238C
:105A2000C0F8B832C0F8C032C0F8CC3209B1C0F802
:105A3000B412012180F89C12027000F0A3B8032078
:105A4000704710B5D0F8C402FBF738FCBDE8104031
:105A5000FFF7D8BF10B5D0F8C402FBF70AFCBDE8C9
:105A60001040FFF7CFBF70B51646044621B194F839
:105A70009C02032841D048E0D4F8941204F11400A9
:105A80000025022932D1D0E902318B4206D95A1AB7
:105A9000826031462046FFF7CFFE0FE0994214D1D5
:105AA0004068884211D3D4F8981288420DD200225F
:105AB00011462046FFF7C0FEC4F8985200231A464C
:105AC0001946204600F0BBF810E094F89C02032829
:105AD00005D1D4F8B802C16809B1204688478021B1
